:020000040800F2
:1000000068060020990200087F050008A303000885
:100010007D0500089F030008690600080000000035
:100020000000000000000000000000008305000840
:10003000A1030008000000008105000885050008F4
:10004000B3020008B3020008B3020008B3020008BC
:10005000B3020008B3020008B3020008B3020008AC
:10006000B3020008B3020008B3020008B30200089C
:10007000B3020008B3020008B3020008B30200088C
:10008000B3020008B3020008B3020008B30200087C
:10009000B3020008B3020008B3020008B30200086C
:1000A000B3020008B3020008B3020008B30200085C
:1000B000B3020008B3020008B3020008B30200084C
:1000C000B3020008B3020008B3020008B30200083C
:1000D000B3020008B3020008B3020008B30200082C
:1000E000B3020008B3020008B3020008B30200081C
:1000F000B3020008B3020008B3020008B30200080C
:10010000B3020008B3020008B3020008B3020008FB
:10011000B3020008B3020008B3020008B3020008EB
:10012000B3020008B3020008B3020008B3020008DB
:10013000B3020008B3020008B3020008B3020008CB
:10014000B3020008B3020008B3020008B3020008BB
:10015000B3020008B3020008B3020008B3020008AB
:10016000B3020008B3020008B3020008B30200089B
:10017000B3020008B3020008B30200080000000048
:10018000B3020008B3020008B3020008B30200087B
:10019000B3020008B3020008B3020008B30200086B
:1001A000B3020008B3020008B3020008B30200085B
:1001B000B3020008B3020008B3020008B30200084B
:1001C000B3020008B302000800000000B3020008F8
:1001D000B3020008B3020008B3020008B30200082B
:1001E000B3020008B3020008B3020008B30200081B
:1001F000B3020008B302000800F002F800F03CF877
:100200000AA090E8000C82448344AAF10107DA4571
:1002100001D100F031F8AFF2090EBAE80F0013F087
:10022000010F18BFFB1A43F00103184748050000EF
:1002300068050000103A24BF78C878C1FAD8520780
:1002400024BF30C830C144BF04680C607047000050
:100250000023002400250026103A28BF78C1FBD8CF
:10026000520728BF30C148BF0B6070471FB500F070
:100270007BFA1FBD10B510BD00F058F81146FFF70E
:10028000F5FF00F0F3F900F076F803B4FFF7F2FFA2
:1002900003BC00F07DF8000009488047094800478A
:1002A000FEE7FEE7FEE7FEE7FEE7FEE7FEE7FEE726
:1002B000FEE7FEE704480549054A064B7047000083
:1002C00059060008F90100086800002068060020AF
:1002D00068020020680200204FF0000200B51346BB
:1002E00094469646203922BFA0E80C50A0E80C5056
:1002F000B1F12001BFF4F7AF090728BFA0E80C5007
:1003000048BF0CC05DF804EB890028BF40F8042BFF
:1003100008BF704748BF20F8022B11F0804F18BF6C
:1003200000F8012B7047704770477047754600F022
:100330002BF8AE4605006946534620F00700854677
:1003400018B020B5FFF7B6FFBDE820404FF000061B
:100350004FF000074FF000084FF0000B21F00701AD
:10036000AC46ACE8C009ACE8C009ACE8C009ACE8F0
:10037000C0098D46704710B50446AFF30080204693
:10038000BDE81040FFF781BF00487047040000201F
:1003900001491820ABBEFEE7260002007047FEE7C9
:1003A0007047FEE7044908B50A6802430A60096815
:1003B0000140009108BD000030380240F0B50A68E5
:1003C0000F25032492FAA2F2B2FA82F38FE00127FA
:1003D0009F4016EA07027CD04E68012E01D0022E03
:1003E00020D192FAA2F6876892FAA2FCB6FA86F6B3
:1003F000BCFA8CFE4FEA460C8E684FEA4E0E04FAA9
:100400000CFC06FA0EF627EA0C0737438760D0F893
:1004100004C0CF680E682CEA060C77434CEA070C40
:10042000C0F804C092FAA2FCC76892FAA2F6BCFA1D
:100430008CFCB6FA86FE0E694FEA4C0C4FEA4E0E63
:1004400004FA0CFC06FA0EF627EA0C073743C760DD
:100450004E68022E33D192FAA2F6B6FA86F6082E2C
:1004600016D292FAA2FC076A92FAA2F6BCFA8CFCA7
:10047000B6FA86FE4E694FEA8C0C4FEA8E0E05FAEC
:100480000CFC06FA0EF627EA0C073743076216E063
:10049000476A160A96FAA6FC96FAA6FE4E69BCFAB8
:1004A0008CFCBEFA8EFE4FEA8C0C4FEA8E0E05FADB
:1004B0000CFC06FA0EF627EA0C073743476292FA5D
:1004C000A2FC066892FAA2F2BCFA8CFCB2FA82FE96
:1004D00000E00BE04A684FEA4C0C4FEA4E0E04FA7B
:1004E0000CF7BE4302FA0EF2164306605B1C0A6864
:1004F0001646DA407FF46BAF0020F0BD4FF47A72FD
:100500004FF0E021B0FBF2F000230522401E4861CD
:100510008B610A6170470000014908607047000064
:1005200000000020F0B587B018216846FFF7D4FE20
:100530008020FFF737FF0220FFF734FF0E4D4FF406
:100540008030A8614000A86101A80124009402261F
:100550006946002780E8D00028460494FFF72EFF64
:10056000CDE9006402966946CDE903742846FFF799
:1005700025FF07B0F0BD000000040240FEE7FEE7E3
:1005800070477047704700002D4870B5016821F032
:100590000F0141F007010160016801F00F01072917
:1005A000FAD12849086840F44040086026480A68A3
:1005B00042F480320A60026842F4803202600268CB
:1005C000C2F34042002AFAD01F4B204A1B1D204D87
:1005D0001C682C4022431A60026842F0807202605C
:1005E0000268C2F34062002AFAD04868C0F3803043
:1005F0000028FAD014480830016821F0F0010160A9
:10060000016821F4E05141F4A0510160016821F436
:10061000604141F400410160016821F0030141F0B3
:1006200002010160016801F00C010829FAD1094CAE
:100630002046FFF763FF2046BDE87040FFF76CBF20
:10064000003C02400070004000380240196C40003D
:100650000080BCFF00E6DF0C0248016841F4700135
:100660000160704788ED00E0FEE7000008B5BFF3C9
:100670004F8FBFF36F8F374900200860BFF34F8F54
:10068000BFF36F8F34490A6842F400320A60BFF347
:100690004F8FBFF36F8F304A70321060BFF34F8FB0
:1006A000101F43F6FF7500682A4E1036C0F34E3215
:1006B000C0F3C90405EA4213204600BF43EA80772D
:1006C0003760401EFAD2521EF4D2BFF34F8F086833
:1006D00040F480300860BFF34F8FBFF36F8F1F4827
:1006E000016841F080510160006800F08050009086
:1006F0001A48001D016841F48041016000684FF60E
:10070000FF03154900F4804000900839144A086836
:10071000184040F44070104308600868C0F302209D
:10072000C0F10701042900D90421021D072A01D2C2
:10073000002000E0C01E01228A40521E02F0070184
:10074000084A8140080182F8140DFFF71DFFFFF7EA
:10075000E9FEFEE750EF00E014ED00E04038024013
:100760000000FA050FE000E04FF04070E1EE100AE3
:1007700070470000940700080000002004000000FB
:1007800034020008980700080400002064060000F6
:08079000500200080024F400EF
:04000005080001F9F5
:00000001FF
